:04000000FEEFFFF020
:1026000000350D0A000091EC16F0C7680401086B54
:10261000C96A186BF00EC16EC8901091C8921093E1
:10262000CA902091CA9220934BEC16F04BEC16F016
:102630004BEC16F04BEC16F0CFA021EF13F023EF8C
:1026400013F029EF13F0C180330E166E146AFFEFFA
:1026500013F0CFA22EEF13F030EF13F06AEF13F068
:10266000020E126E860E116E990EE82EFED7112EF6
:10267000FCD7122EFAD70000C1901450D8A443EF13
:1026800013F045EF13F04DEF13F0010E0D6EDBEC80
:1026900015F0330E166E010E146E73EC16F0000971
:1026A000D8B455EF13F057EF13F06AEF13F025ECA1
:1026B00015F0166EC182C180010E136E040E126EEB
:1026C0008E0E116E120EE82EFED7112EFCD7122E92
:1026D000FAD700D0CFA46FEF13F071EF13F0FFEF34
:1026E00013F0050E126EC50E116EC20EE82EFED747
:1026F000112EFCD7122EFAD700D0C1900B0E126EFD
:10270000670E116E4D0EE82EFED7112EFCD7122E3D
:10271000FAD70000E1EF13F0C198150E126E4B0EC0
:10272000116EBE0EE82EFED7112EFCD7122EFAD750
:1027300000D0C188150E126E4B0E116EBE0EE82E23
:10274000FED7112EFCD7122EFAD700D0330E166EFC
:10275000F0EF13F0C19A0D0E126E2D0E116ED80E01
:10276000E82EFED7112EFCD7122EFAD7C18A150EED
:10277000126E4B0E116EBE0EE82EFED7112EFCD738
:10278000122EFAD700D0A6EF13F0C19C0D0E126ED8
:10279000AF0E116EB60EE82EFED7112EFCD7122EFC
:1027A000FAD700D0C18C150E126E4B0E116EBE0EF4
:1027B000E82EFED7112EFCD7122EFAD700D0A6EFA6
:1027C00013F01650300AD8B48CEF13F0010AD8B4C5
:1027D000AAEF13F0030AD8B4C5EF13F0F0EF13F02B
:1027E000330E166EC184C180060E126E130E116E6A
:1027F000AE0EE82EFED7112EFCD7122EFAD7CFA69A
:1028000004EF14F006EF14F05DEF14F01350D8A4A9
:102810000CEF14F00EEF14F01DEF14F00D0E126E0D
:10282000AF0E116EB60EE82EFED7112EFCD7122E6B
:10283000FAD700D0C1905DEF14F0C186070E126E7A
:10284000F40E116E320EE82EFED7112EFCD7122E8A
:10285000FAD7C190820E116EDE0EE82EFED7112E31
:10286000FCD74BEC16F0820E116EDE0EE82EFED772
:10287000112EFCD74BEC16F0820E116EDE0EE82EF8
:10288000FED7112EFCD74BEC16F0820E116EDE0E29
:10289000E82EFED7112EFCD74BEC16F0020E126E6E
:1028A000040E116EBA0EE82EFED7112EFCD7122E92
:1028B000FAD700D0C290C282136ACFAA62EF14F096
:1028C00064EF14F01CEF13F01A0E116EF80EE82EE0
:1028D000FED7112EFCD700D0CFAA71EF14F073EF02
:1028E00014F01CEF13F0C290C292030E126E8A0E07
:1028F000116E560EE82EFED7112EFCD7122EFAD7E7
:1029000018EC16F0820E116EDE0EE82EFED7112E98
:10291000FCD718EC16F0820E116EDE0EE82EFED7F4
:10292000112EFCD718EC16F0820E116EDE0EE82E7A
:10293000FED7112EFCD718EC16F00B0E126E260ED9
:10294000116E5E0EE82EFED7112EFCD7122EFAD78E
:102950002AEC16F0820E116EDE0EE82EFED7112E36
:10296000FCD72AEC16F0820E116EDE0EE82EFED792
:10297000112EFCD72AEC16F0820E116EDE0EE82E18
:10298000FED7112EFCD72AEC16F0060E126E130E8F
:10299000116EAE0EE82EFED7112EFCD7122EFAD7EE
:1029A0005AEC16F0820E116EDE0EE82EFED7112EB6
:1029B000FCD75AEC16F0820E116EDE0EE82EFED712
:1029C000112EFCD75AEC16F0820E116EDE0EE82E98
:1029D000FED7112EFCD75AEC16F0060E126E130E0F
:1029E000116EAE0EE82EFED7112EFCD7122EFAD79E
:1029F000C280C292040E126E0C0E116E340EE82EBE
:102A0000FED7112EFCD7122EFAD7C290C292060E14
:102A1000126E130E116EAE0EE82EFED7112EFCD7DD
:102A2000122EFAD7C180060E126E130E116EAE0E64
:102A3000E82EFED7112EFCD7122EFAD7F00EC16E5B
:102A4000136A1CEF13F0FEEFFFF0B2A02AEF15F0AF
:102A50002CEF15F025EF15F0156A0201B2A733EF40
:102A600015F035EF15F043EF15F0158202D843EF5E
:102A700015F00500FA6E0750FD6E0850FE6E095005
:102A8000FF6EFA5012000201B2A349EF15F04BEFAE
:102A900015F059EF15F0158402D859EF15F005001F
:102AA000FA6E0450FD6E0550FE6E0650FF6EFA5031
:102AB00012001550D8B45FEF15F061EF15F06EEF0E
:102AC00015F002D86EEF15F00500FA6E0150FD6E9C
:102AD0000250FE6E0350FF6EFA5012000201A15127
:102AE0001200C26AC16ABE6AC36ABF6AC06A070EC0
:102AF000CA6EFE0ECB6EC668C768C868C968040196
:102B0000186910690869070E206FFD0E286F0069AB
:102B1000196B296B216B096B016B116B0201896BBE
:102B2000886B876B866B0401226B2A6B026B0A6BC6
:102B3000126B1A6B03690B6913691B69070E236F0C
:102B40002B6904690C6914691C690F0E246F2C69C8
:102B5000200E0201296F290E726F12000201A56B6F
:102B6000A66BA76BA86BA96BAA6BB00EAB6F800EA0
:102B7000AC6FAD6B670EAE6FAF6BB06BB16BB26B22
:102B8000B36B600E0A6E2D0E0B6E000E0C6EA1EC78
:102B900016F05E0E0A6E2D0E0B6E000E0C6E9AEC89
:102BA00016F0620E0A6E2D0E0B6E000E0C6EA8EC67
:102BB00016F0156A12000DC50AF5FCEC15F00A5066
:102BC0000F6E106AF2EF15F00D5010240E6E0EC548
:102BD000F6F4260EF76E000EF86E0800F55068EC5D
:102BE00016F0102A0F50105CD8A0F9EF15F0FBEF8B
:102BF00015F0E4EF15F012000AC50CF501EF16F020
:102C00000A2A0AC5F6F4260EF76E000EF86E0800C2
:102C1000F5500009D8A40FEF16F011EF16F000EFF1
:102C200016F00C500A5C0A6E0B6A0ABE0B06120004
:102C3000C080040E0A6E3E0EE82EFED70A2EFCD788
:102C4000C090170E0A6EB90EE82EFED70A2EFCD7DA
:102C500000001200C082040E0A6E3E0EE82EFED75F
:102C60000A2EFCD7C092170E0A6EB90EE82EFED7B8
:102C70000A2EFCD700001200640EF66E2D0EF76EC1
:102C8000000EF86E0900F5C416F5156A146A136A89
:102C9000000103EF13F0C080B70EE82EFED700004E
:102CA000C0901A0E0A6E410EE82EFED70A2EFCD7EF
:102CB00000001200C082A60EE82EFED700D0C092FF
:102CC0001A0E0A6E520EE82EFED70A2EFCD71200FC
:102CD0000A6EB2A26EEF16F070EF16F069EF16F002
:102CE0000AC5A3F21200B2B078EF16F07BEF16F02F
:102CF000010E7CEF16F0000E12000001606B616B9C
:102D0000636B646B656B666B676B686B1200600E60
:102D10000001AD6FAF6BB36B020EB16FB06BAC6BFC
:102D200012007DEC16F071EC15F087EC16F0AEECAD
:102D300015F012000AC504F50BC505F50CC506F51E
:102D400012000AC507F50BC508F50CC509F51200F8
:102D50000AC501F50BC502F50CC503F512001200FA
:052D6000120012000347
:020000040001F9
:04FFFC003CEF16F0D0
:020000040030CA
:08000000ECFFF7FF9FFFFFFF7B
:01000900FFF7
:00000001FF
